{
  "contractName": "NFTGrab",
  "abi": [
    {
      "anonymous": false,
      "inputs": [
        {
          "indexed": true,
          "internalType": "uint256",
          "name": "auctionId",
          "type": "uint256"
        }
      ],
      "name": "AuctionBid",
      "type": "event"
    },
    {
      "anonymous": false,
      "inputs": [
        {
          "indexed": true,
          "internalType": "uint256",
          "name": "auctionId",
          "type": "uint256"
        }
      ],
      "name": "AuctionCanceled",
      "type": "event"
    },
    {
      "anonymous": false,
      "inputs": [
        {
          "indexed": true,
          "internalType": "uint256",
          "name": "auctionId",
          "type": "uint256"
        }
      ],
      "name": "AuctionCreated",
      "type": "event"
    },
    {
      "inputs": [
        {
          "internalType": "address",
          "name": "",
          "type": "address"
        },
        {
          "internalType": "address",
          "name": "_from",
          "type": "address"
        },
        {
          "internalType": "uint256",
          "name": "_tokenId",
          "type": "uint256"
        },
        {
          "internalType": "bytes",
          "name": "",
          "type": "bytes"
        }
      ],
      "name": "onERC721Received",
      "outputs": [
        {
          "internalType": "bytes4",
          "name": "",
          "type": "bytes4"
        }
      ],
      "stateMutability": "nonpayable",
      "type": "function"
    },
    {
      "inputs": [
        {
          "internalType": "uint256",
          "name": "_auctionId",
          "type": "uint256"
        }
      ],
      "name": "bid",
      "outputs": [],
      "stateMutability": "payable",
      "type": "function",
      "payable": true
    },
    {
      "inputs": [
        {
          "internalType": "uint256",
          "name": "_auctionId",
          "type": "uint256"
        }
      ],
      "name": "cancelAuction",
      "outputs": [],
      "stateMutability": "nonpayable",
      "type": "function"
    },
    {
      "inputs": [
        {
          "internalType": "uint256",
          "name": "_auctionId",
          "type": "uint256"
        }
      ],
      "name": "widthdrawToken",
      "outputs": [],
      "stateMutability": "nonpayable",
      "type": "function"
    },
    {
      "inputs": [
        {
          "internalType": "uint256",
          "name": "_auctionId",
          "type": "uint256"
        }
      ],
      "name": "widthdrawBids",
      "outputs": [],
      "stateMutability": "nonpayable",
      "type": "function"
    },
    {
      "inputs": [
        {
          "internalType": "uint256",
          "name": "_auctionId",
          "type": "uint256"
        }
      ],
      "name": "getAuction",
      "outputs": [
        {
          "components": [
            {
              "internalType": "contract IERC721",
              "name": "nftContract",
              "type": "address"
            },
            {
              "internalType": "address",
              "name": "seller",
              "type": "address"
            },
            {
              "internalType": "address",
              "name": "bidder",
              "type": "address"
            },
            {
              "internalType": "uint256",
              "name": "tokenId",
              "type": "uint256"
            },
            {
              "internalType": "uint256",
              "name": "auctionId",
              "type": "uint256"
            },
            {
              "internalType": "uint256",
              "name": "startBlock",
              "type": "uint256"
            },
            {
              "internalType": "uint256",
              "name": "endBlock",
              "type": "uint256"
            },
            {
              "internalType": "uint256",
              "name": "blockIncrease",
              "type": "uint256"
            },
            {
              "internalType": "uint256",
              "name": "bidPrice",
              "type": "uint256"
            },
            {
              "internalType": "uint256",
              "name": "bidTotal",
              "type": "uint256"
            },
            {
              "internalType": "bool",
              "name": "isCanceled",
              "type": "bool"
            },
            {
              "internalType": "bool",
              "name": "isTokenWidthdrawn",
              "type": "bool"
            },
            {
              "internalType": "bool",
              "name": "isBidsWidthdrawn",
              "type": "bool"
            }
          ],
          "internalType": "struct NFTGrab.Auction",
          "name": "",
          "type": "tuple"
        }
      ],
      "stateMutability": "view",
      "type": "function",
      "constant": true
    },
    {
      "inputs": [],
      "name": "getAuctions",
      "outputs": [
        {
          "components": [
            {
              "internalType": "contract IERC721",
              "name": "nftContract",
              "type": "address"
            },
            {
              "internalType": "address",
              "name": "seller",
              "type": "address"
            },
            {
              "internalType": "address",
              "name": "bidder",
              "type": "address"
            },
            {
              "internalType": "uint256",
              "name": "tokenId",
              "type": "uint256"
            },
            {
              "internalType": "uint256",
              "name": "auctionId",
              "type": "uint256"
            },
            {
              "internalType": "uint256",
              "name": "startBlock",
              "type": "uint256"
            },
            {
              "internalType": "uint256",
              "name": "endBlock",
              "type": "uint256"
            },
            {
              "internalType": "uint256",
              "name": "blockIncrease",
              "type": "uint256"
            },
            {
              "internalType": "uint256",
              "name": "bidPrice",
              "type": "uint256"
            },
            {
              "internalType": "uint256",
              "name": "bidTotal",
              "type": "uint256"
            },
            {
              "internalType": "bool",
              "name": "isCanceled",
              "type": "bool"
            },
            {
              "internalType": "bool",
              "name": "isTokenWidthdrawn",
              "type": "bool"
            },
            {
              "internalType": "bool",
              "name": "isBidsWidthdrawn",
              "type": "bool"
            }
          ],
          "internalType": "struct NFTGrab.Auction[]",
          "name": "",
          "type": "tuple[]"
        }
      ],
      "stateMutability": "view",
      "type": "function",
      "constant": true
    },
    {
      "inputs": [],
      "name": "getAuctionIds",
      "outputs": [
        {
          "internalType": "uint256[]",
          "name": "",
          "type": "uint256[]"
        }
      ],
      "stateMutability": "view",
      "type": "function",
      "constant": true
    }
  ],
  "bytecode": "0x608060405234801561001057600080fd5b5061246d806100206000396000f3fe60806040526004361061007b5760003560e01c80637ce0bcc91161004e5780637ce0bcc91461014157806396b5a7551461016a578063d7c0691914610193578063e0961b28146101be5761007b565b80631094db1b14610080578063150b7a02146100ab578063454a2ab3146100e857806378bd793514610104575b600080fd5b34801561008c57600080fd5b506100956101e7565b6040516100a291906116d9565b60405180910390f35b3480156100b757600080fd5b506100d260048036038101906100cd91906117f4565b61023f565b6040516100df91906118b7565b60405180910390f35b61010260048036038101906100fd91906118d2565b61025f565b005b34801561011057600080fd5b5061012b600480360381019061012691906118d2565b610557565b6040516101389190611a93565b60405180910390f35b34801561014d57600080fd5b50610168600480360381019061016391906118d2565b6107c5565b005b34801561017657600080fd5b50610191600480360381019061018c91906118d2565b610a26565b005b34801561019f57600080fd5b506101a8610d12565b6040516101b59190611c6a565b60405180910390f35b3480156101ca57600080fd5b506101e560048036038101906101e091906118d2565b610d72565b005b6060600080548060200260200160405190810160405280929190818152602001828054801561023557602002820191906000526020600020905b815481526020019060010190808311610221575b5050505050905090565b600061024c33868661103c565b63150b7a0260e01b905095945050505050565b80600073ffffffffffffffffffffffffffffffffffffffff166001600083815260200190815260200160002060010160009054906101000a900473ffffffffffffffffffffffffffffffffffffffff1673ffffffffffffffffffffffffffffffffffffffff1603610305576040517f08c379a00000000000000000000000000000000000000000000000000000000081526004016102fc90611d0f565b60405180910390fd5b60006001600084815260200190815260200160002090508060010160009054906101000a900473ffffffffffffffffffffffffffffffffffffffff1673ffffffffffffffffffffffffffffffffffffffff163373ffffffffffffffffffffffffffffffffffffffff16036103ae576040517f08c379a00000000000000000000000000000000000000000000000000000000081526004016103a590611d7b565b60405180910390fd5b80600801543410156103f5576040517f08c379a00000000000000000000000000000000000000000000000000000000081526004016103ec90611de7565b60405180910390fd5b6001151581600a0160009054906101000a900460ff1615150361044d576040517f08c379a000000000000000000000000000000000000000000000000000000000815260040161044490611e53565b60405180910390fd5b60008160050154146104a55780600601544311156104a0576040517f08c379a000000000000000000000000000000000000000000000000000000000815260040161049790611ebf565b60405180910390fd5b6104af565b4381600501819055505b338160020160006101000a81548173ffffffffffffffffffffffffffffffffffffffff021916908373ffffffffffffffffffffffffffffffffffffffff1602179055508060070154436105029190611f0e565b81600601819055503481600901600082825461051e9190611f0e565b92505081905550827f06e5b85610d9059ccc931fdbc80165c8b5544193aa18bf6fa744dabc3fd0872060405160405180910390a2505050565b61055f611561565b81600073ffffffffffffffffffffffffffffffffffffffff166001600083815260200190815260200160002060010160009054906101000a900473ffffffffffffffffffffffffffffffffffffffff1673ffffffffffffffffffffffffffffffffffffffff1603610605576040517f08c379a00000000000000000000000000000000000000000000000000000000081526004016105fc90611d0f565b60405180910390fd5b60016000848152602001908152602001600020604051806101a00160405290816000820160009054906101000a900473ffffffffffffffffffffffffffffffffffffffff1673ffffffffffffffffffffffffffffffffffffffff1673ffffffffffffffffffffffffffffffffffffffff1681526020016001820160009054906101000a900473ffffffffffffffffffffffffffffffffffffffff1673ffffffffffffffffffffffffffffffffffffffff1673ffffffffffffffffffffffffffffffffffffffff1681526020016002820160009054906101000a900473ffffffffffffffffffffffffffffffffffffffff1673ffffffffffffffffffffffffffffffffffffffff1673ffffffffffffffffffffffffffffffffffffffff16815260200160038201548152602001600482015481526020016005820154815260200160068201548152602001600782015481526020016008820154815260200160098201548152602001600a820160009054906101000a900460ff16151515158152602001600a820160019054906101000a900460ff16151515158152602001600a820160029054906101000a900460ff161515151581525050915050919050565b80600073ffffffffffffffffffffffffffffffffffffffff166001600083815260200190815260200160002060010160009054906101000a900473ffffffffffffffffffffffffffffffffffffffff1673ffffffffffffffffffffffffffffffffffffffff160361086b576040517f08c379a000000000000000000000000000000000000000000000000000000000815260040161086290611d0f565b60405180910390fd5b6000600160008481526020019081526020016000209050806006015443116108c8576040517f08c379a00000000000000000000000000000000000000000000000000000000081526004016108bf90611fb0565b60405180910390fd5b8060010160009054906101000a900473ffffffffffffffffffffffffffffffffffffffff1673ffffffffffffffffffffffffffffffffffffffff163373ffffffffffffffffffffffffffffffffffffffff161461095a576040517f08c379a000000000000000000000000000000000000000000000000000000000815260040161095190612042565b60405180910390fd5b6000151581600a0160029054906101000a900460ff161515146109b2576040517f08c379a00000000000000000000000000000000000000000000000000000000081526004016109a9906120d4565b60405180910390fd5b8060010160009054906101000a900473ffffffffffffffffffffffffffffffffffffffff1673ffffffffffffffffffffffffffffffffffffffff166108fc82600901549081150290604051600060405180830381858888f19350505050158015610a20573d6000803e3d6000fd5b50505050565b80600073ffffffffffffffffffffffffffffffffffffffff166001600083815260200190815260200160002060010160009054906101000a900473ffffffffffffffffffffffffffffffffffffffff1673ffffffffffffffffffffffffffffffffffffffff1603610acc576040517f08c379a0000000000000000000000000000000000000000000000000000000008152600401610ac390611d0f565b60405180910390fd5b60006001600084815260200190815260200160002090503373ffffffffffffffffffffffffffffffffffffffff168160010160009054906101000a900473ffffffffffffffffffffffffffffffffffffffff1673ffffffffffffffffffffffffffffffffffffffff1614610b75576040517f08c379a0000000000000000000000000000000000000000000000000000000008152600401610b6c90612166565b60405180910390fd5b600073ffffffffffffffffffffffffffffffffffffffff168160020160009054906101000a900473ffffffffffffffffffffffffffffffffffffffff1673ffffffffffffffffffffffffffffffffffffffff1614610c08576040517f08c379a0000000000000000000000000000000000000000000000000000000008152600401610bff906121f8565b60405180910390fd5b8060000160009054906101000a900473ffffffffffffffffffffffffffffffffffffffff1673ffffffffffffffffffffffffffffffffffffffff166342842e0e308360010160009054906101000a900473ffffffffffffffffffffffffffffffffffffffff1684600301546040518463ffffffff1660e01b8152600401610c9193929190612236565b600060405180830381600087803b158015610cab57600080fd5b505af1158015610cbf573d6000803e3d6000fd5b50505050600181600a0160006101000a81548160ff021916908315150217905550827f28601d865dccc9f113e15a7185c1b38c085d598c71250d3337916a428536d77160405160405180910390a2505050565b6060610d6d6000805480602002602001604051908101604052809291908181526020018280548015610d6357602002820191906000526020600020905b815481526020019060010190808311610d4f575b50505050506112ed565b905090565b80600073ffffffffffffffffffffffffffffffffffffffff166001600083815260200190815260200160002060010160009054906101000a900473ffffffffffffffffffffffffffffffffffffffff1673ffffffffffffffffffffffffffffffffffffffff1603610e18576040517f08c379a0000000000000000000000000000000000000000000000000000000008152600401610e0f90611d0f565b60405180910390fd5b600060016000848152602001908152602001600020905080600601544311610e75576040517f08c379a0000000000000000000000000000000000000000000000000000000008152600401610e6c90611fb0565b60405180910390fd5b8060020160009054906101000a900473ffffffffffffffffffffffffffffffffffffffff1673ffffffffffffffffffffffffffffffffffffffff163373ffffffffffffffffffffffffffffffffffffffff1614610f07576040517f08c379a0000000000000000000000000000000000000000000000000000000008152600401610efe906122df565b60405180910390fd5b6000151581600a0160019054906101000a900460ff16151514610f5f576040517f08c379a0000000000000000000000000000000000000000000000000000000008152600401610f5690612371565b60405180910390fd5b8060000160009054906101000a900473ffffffffffffffffffffffffffffffffffffffff1673ffffffffffffffffffffffffffffffffffffffff166342842e0e308360020160009054906101000a900473ffffffffffffffffffffffffffffffffffffffff1684600301546040518463ffffffff1660e01b8152600401610fe893929190612236565b600060405180830381600087803b15801561100257600080fd5b505af1158015611016573d6000803e3d6000fd5b50505050600181600a0160016101000a81548160ff021916908315150217905550505050565b6000808054905090506000604051806101a001604052808673ffffffffffffffffffffffffffffffffffffffff1681526020018573ffffffffffffffffffffffffffffffffffffffff168152602001600073ffffffffffffffffffffffffffffffffffffffff168152602001848152602001838152602001600081526020016000815260200160648152602001670de0b6b3a76400008152602001600081526020016000151581526020016000151581526020016000151581525090506000829080600181540180825580915050600190039060005260206000200160009091909190915055806001600084815260200190815260200160002060008201518160000160006101000a81548173ffffffffffffffffffffffffffffffffffffffff021916908373ffffffffffffffffffffffffffffffffffffffff16021790555060208201518160010160006101000a81548173ffffffffffffffffffffffffffffffffffffffff021916908373ffffffffffffffffffffffffffffffffffffffff16021790555060408201518160020160006101000a81548173ffffffffffffffffffffffffffffffffffffffff021916908373ffffffffffffffffffffffffffffffffffffffff160217905550606082015181600301556080820151816004015560a0820151816005015560c0820151816006015560e082015181600701556101008201518160080155610120820151816009015561014082015181600a0160006101000a81548160ff02191690831515021790555061016082015181600a0160016101000a81548160ff02191690831515021790555061018082015181600a0160026101000a81548160ff021916908315150217905550905050817f7e0e356457a92dacd3760ddf327a24dd226c6ca01b2cc41a7fd6f28469c7ab9b60405160405180910390a25050505050565b60606000825167ffffffffffffffff81111561130c5761130b612391565b5b60405190808252806020026020018201604052801561134557816020015b611332611561565b81526020019060019003908161132a5790505b50905060005b8351811015611557576001600085838151811061136b5761136a6123c0565b5b60200260200101518152602001908152602001600020604051806101a00160405290816000820160009054906101000a900473ffffffffffffffffffffffffffffffffffffffff1673ffffffffffffffffffffffffffffffffffffffff1673ffffffffffffffffffffffffffffffffffffffff1681526020016001820160009054906101000a900473ffffffffffffffffffffffffffffffffffffffff1673ffffffffffffffffffffffffffffffffffffffff1673ffffffffffffffffffffffffffffffffffffffff1681526020016002820160009054906101000a900473ffffffffffffffffffffffffffffffffffffffff1673ffffffffffffffffffffffffffffffffffffffff1673ffffffffffffffffffffffffffffffffffffffff16815260200160038201548152602001600482015481526020016005820154815260200160068201548152602001600782015481526020016008820154815260200160098201548152602001600a820160009054906101000a900460ff16151515158152602001600a820160019054906101000a900460ff16151515158152602001600a820160029054906101000a900460ff161515151581525050828281518110611539576115386123c0565b5b6020026020010181905250808061154f906123ef565b91505061134b565b5080915050919050565b604051806101a00160405280600073ffffffffffffffffffffffffffffffffffffffff168152602001600073ffffffffffffffffffffffffffffffffffffffff168152602001600073ffffffffffffffffffffffffffffffffffffffff168152602001600081526020016000815260200160008152602001600081526020016000815260200160008152602001600081526020016000151581526020016000151581526020016000151581525090565b600081519050919050565b600082825260208201905092915050565b6000819050602082019050919050565b6000819050919050565b6116508161163d565b82525050565b60006116628383611647565b60208301905092915050565b6000602082019050919050565b600061168682611611565b611690818561161c565b935061169b8361162d565b8060005b838110156116cc5781516116b38882611656565b97506116be8361166e565b92505060018101905061169f565b5085935050505092915050565b600060208201905081810360008301526116f3818461167b565b905092915050565b600080fd5b600080fd5b600073ffffffffffffffffffffffffffffffffffffffff82169050919050565b600061173082611705565b9050919050565b61174081611725565b811461174b57600080fd5b50565b60008135905061175d81611737565b92915050565b61176c8161163d565b811461177757600080fd5b50565b60008135905061178981611763565b92915050565b600080fd5b600080fd5b600080fd5b60008083601f8401126117b4576117b361178f565b5b8235905067ffffffffffffffff8111156117d1576117d0611794565b5b6020830191508360018202830111156117ed576117ec611799565b5b9250929050565b6000806000806000608086880312156118105761180f6116fb565b5b600061181e8882890161174e565b955050602061182f8882890161174e565b94505060406118408882890161177a565b935050606086013567ffffffffffffffff81111561186157611860611700565b5b61186d8882890161179e565b92509250509295509295909350565b60007fffffffff0000000000000000000000000000000000000000000000000000000082169050919050565b6118b18161187c565b82525050565b60006020820190506118cc60008301846118a8565b92915050565b6000602082840312156118e8576118e76116fb565b5b60006118f68482850161177a565b91505092915050565b6000819050919050565b600061192461191f61191a84611705565b6118ff565b611705565b9050919050565b600061193682611909565b9050919050565b60006119488261192b565b9050919050565b6119588161193d565b82525050565b61196781611725565b82525050565b60008115159050919050565b6119828161196d565b82525050565b6101a08201600082015161199f600085018261194f565b5060208201516119b2602085018261195e565b5060408201516119c5604085018261195e565b5060608201516119d86060850182611647565b5060808201516119eb6080850182611647565b5060a08201516119fe60a0850182611647565b5060c0820151611a1160c0850182611647565b5060e0820151611a2460e0850182611647565b50610100820151611a39610100850182611647565b50610120820151611a4e610120850182611647565b50610140820151611a63610140850182611979565b50610160820151611a78610160850182611979565b50610180820151611a8d610180850182611979565b50505050565b60006101a082019050611aa96000830184611988565b92915050565b600081519050919050565b600082825260208201905092915050565b6000819050602082019050919050565b6101a082016000820151611af2600085018261194f565b506020820151611b05602085018261195e565b506040820151611b18604085018261195e565b506060820151611b2b6060850182611647565b506080820151611b3e6080850182611647565b5060a0820151611b5160a0850182611647565b5060c0820151611b6460c0850182611647565b5060e0820151611b7760e0850182611647565b50610100820151611b8c610100850182611647565b50610120820151611ba1610120850182611647565b50610140820151611bb6610140850182611979565b50610160820151611bcb610160850182611979565b50610180820151611be0610180850182611979565b50505050565b6000611bf28383611adb565b6101a08301905092915050565b6000602082019050919050565b6000611c1782611aaf565b611c218185611aba565b9350611c2c83611acb565b8060005b83811015611c5d578151611c448882611be6565b9750611c4f83611bff565b925050600181019050611c30565b5085935050505092915050565b60006020820190508181036000830152611c848184611c0c565b905092915050565b600082825260208201905092915050565b7f41756374696f6e20494420646f6573206e6f74207265666572656e636520766160008201527f6c69642061756374696f6e000000000000000000000000000000000000000000602082015250565b6000611cf9602b83611c8c565b9150611d0482611c9d565b604082019050919050565b60006020820190508181036000830152611d2881611cec565b9050919050565b7f41756374696f6e2073656c6c65722063616e6e6f7420706c616365206269642e600082015250565b6000611d65602083611c8c565b9150611d7082611d2f565b602082019050919050565b60006020820190508181036000830152611d9481611d58565b9050919050565b7f41756374696f6e20626964207072696365206e6f74206d65742e000000000000600082015250565b6000611dd1601a83611c8c565b9150611ddc82611d9b565b602082019050919050565b60006020820190508181036000830152611e0081611dc4565b9050919050565b7f41756374696f6e20686173206265656e2063616e63656c656400000000000000600082015250565b6000611e3d601983611c8c565b9150611e4882611e07565b602082019050919050565b60006020820190508181036000830152611e6c81611e30565b9050919050565b7f41756374696f6e2062696464696e672068617320656e6465642e000000000000600082015250565b6000611ea9601a83611c8c565b9150611eb482611e73565b602082019050919050565b60006020820190508181036000830152611ed881611e9c565b9050919050565b7f4e487b7100000000000000000000000000000000000000000000000000000000600052601160045260246000fd5b6000611f198261163d565b9150611f248361163d565b9250827fffffffffffffffffffffffffffffffffffffffffffffffffffffffffffffffff03821115611f5957611f58611edf565b5b828201905092915050565b7f41756374696f6e2062696464696e6720686173206e6f7420656e6465642e0000600082015250565b6000611f9a601e83611c8c565b9150611fa582611f64565b602082019050919050565b60006020820190508181036000830152611fc981611f8d565b9050919050565b7f426964732063616e206f6e6c79206265207769647468647261776e206279207460008201527f68652073656c6c65722e00000000000000000000000000000000000000000000602082015250565b600061202c602a83611c8c565b915061203782611fd0565b604082019050919050565b6000602082019050818103600083015261205b8161201f565b9050919050565b7f42696473206861766520616c7265616479206265656e2077696474686472617760008201527f6e2e000000000000000000000000000000000000000000000000000000000000602082015250565b60006120be602283611c8c565b91506120c982612062565b604082019050919050565b600060208201905081810360008301526120ed816120b1565b9050919050565b7f41756374696f6e2063616e206f6e6c792062652063616e63656c65642062792060008201527f7468652073656c6c65722e000000000000000000000000000000000000000000602082015250565b6000612150602b83611c8c565b915061215b826120f4565b604082019050919050565b6000602082019050818103600083015261217f81612143565b9050919050565b7f41756374696f6e2063616e6e6f742062652063616e63656c656420616674657260008201527f207374617274206f662062696464696e672e0000000000000000000000000000602082015250565b60006121e2603283611c8c565b91506121ed82612186565b604082019050919050565b60006020820190508181036000830152612211816121d5565b9050919050565b61222181611725565b82525050565b6122308161163d565b82525050565b600060608201905061224b6000830186612218565b6122586020830185612218565b6122656040830184612227565b949350505050565b7f546f6b656e2063616e206f6e6c79206265207769647468647261776e2062792060008201527f7468652077696e6e696e67206269646465722e00000000000000000000000000602082015250565b60006122c9603383611c8c565b91506122d48261226d565b604082019050919050565b600060208201905081810360008301526122f8816122bc565b9050919050565b7f546f6b656e2068617320616c7265616479206265656e2077696474686472617760008201527f6e2e000000000000000000000000000000000000000000000000000000000000602082015250565b600061235b602283611c8c565b9150612366826122ff565b604082019050919050565b6000602082019050818103600083015261238a8161234e565b9050919050565b7f4e487b7100000000000000000000000000000000000000000000000000000000600052604160045260246000fd5b7f4e487b7100000000000000000000000000000000000000000000000000000000600052603260045260246000fd5b60006123fa8261163d565b91507fffffffffffffffffffffffffffffffffffffffffffffffffffffffffffffffff820361242c5761242b611edf565b5b60018201905091905056fea2646970667358221220cebe8a3417457dd3201d0d9bd7dd7d33a5d02c1de45c71eeeca5da0c78ea136664736f6c634300080d0033",
  "immutableReferences": {},
  "source": "// SPDX-License-Identifier: MIT\npragma solidity ^0.8.9;\n\nimport \"@openzeppelin/contracts/token/ERC721/IERC721.sol\";\nimport \"@openzeppelin/contracts/token/ERC721/IERC721Receiver.sol\";\n\ncontract NFTGrab is IERC721Receiver {\n  \n    // Contract events\n    event AuctionCreated(uint256 indexed auctionId);\n    event AuctionCanceled(uint256 indexed auctionId);\n    event AuctionBid(uint256 indexed auctionId);\n\n    /**\n    * @dev Structure defining the properties of each auction\n    *\n    * nftContract - ERC721 Interface for NFT contract address\n    * seller - Address of token seller\n    * bidder - Address of latest bidder\n    * tokenId - NFT identifier for token\n    * auctionId - Identifier for auction details\n    * startBlock - Block number when auction began\n    * endBlock - Block number when auciton will end\n    * blockIncrease - Number of blocks added with each bid\n    * bidPrice - Value required to place a bid\n    * bidTotal - Value of all bids placed\n    */ \n    struct Auction {\n        IERC721 nftContract;\n        address seller;\n        address bidder;\n        uint256 tokenId;\n        uint256 auctionId;\n        uint256 startBlock;\n        uint256 endBlock;\n        uint256 blockIncrease; \n        uint256 bidPrice;\n        uint256 bidTotal;\n        bool isCanceled;\n        bool isTokenWidthdrawn;\n        bool isBidsWidthdrawn;\n    }\n\n    // Array of auction IDs\n    uint256[] private auctionIds;\n\n    // Mapping of auction ID to Auction details\n    mapping (uint256 => Auction) private auctions;\n\n    /**\n    * @dev Implementation of the required {onERC721Received} function for contracts \n    * intended as recipients of ERC721 token transfers using {safeTransferFrom}. \n    *\n    * Creates auction for the received token and returns required ERC721TokenReciever value. \n    *\n    * TODO: Allow custom auction details to be passed through the calldata\n    *\n    * @param _from Address that previously owned the token\n    * @param _tokenId NFT identifier of token being transfered\n    * @return Expected magic value defined by ERC721TokenReciever spec\n    */\n    function onERC721Received(\n        address,\n        address _from,\n        uint256 _tokenId,\n        bytes calldata\n    ) \n        external \n        returns (bytes4) \n    {\n        _createAuction(msg.sender, _from, _tokenId);\n        return this.onERC721Received.selector;\n    }\n\n    /**\n    * @dev Accepts a new bid for an auction\n    *\n    * A successfull bid will add the caller as auction bidder and \n    * increase the auction's `endBlock` deadline. Auctions with no previous \n    * bidders will have `startBlock` set. \n    *\n    * Emits an {AuctionBid} event\n    *\n    * Requirements\n    * - `_auctionId` must correspond to valid auction\n    * - Auction `seller` cannot place a bid\n    * - Payment must meet minimum bid price\n    * - Auction must not be canceled\n    * - Bid must be placed before auction's `endBlock` deadline if not the first bid\n    *\n    * @param _auctionId Identifier for auction listing\n    */\n    function bid(\n        uint _auctionId\n    )\n        external\n        auctionExists(_auctionId)    \n        payable\n    {\n        Auction storage auction = auctions[_auctionId];\n        require(msg.sender != auction.seller, \"Auction seller cannot place bid.\");\n        require(msg.value >= auction.bidPrice, \"Auction bid price not met.\");\n        require(auction.isCanceled != true, \"Auction has been canceled\");\n\n        if (auction.startBlock != 0) {\n            require(block.number <= auction.endBlock, \"Auction bidding has ended.\");\n        } else {\n            auction.startBlock = block.number;\n        }\n\n        auction.bidder = msg.sender;\n        auction.endBlock = block.number + auction.blockIncrease;\n        auction.bidTotal += msg.value; \n\n        emit AuctionBid(_auctionId);\n    }\n\n    /**\n    * @dev Cancel an auction and return the token to the seller.\n    *\n    * Emits an {AuctionCancelled} event\n    *\n    * Requirements\n    * - `_auctionId` must correspond to valid auction\n    * - Only `seller` can cancel the auction\n    * - Can only be canceled if no bids have been placed\n    *\n    * @param _auctionId Identifier for auction listing\n    */\n    function cancelAuction(\n        uint _auctionId\n    ) \n        external \n        auctionExists(_auctionId) \n    {\n        Auction storage auction = auctions[_auctionId];\n        require(auction.seller == msg.sender, \"Auction can only be canceled by the seller.\");\n        require(auction.bidder == address(0), \"Auction cannot be canceled after start of bidding.\");\n\n        auction.nftContract.safeTransferFrom(\n            address(this), \n            auction.seller, \n            auction.tokenId\n        );\n\n        auction.isCanceled = true;\n\n        emit AuctionCanceled(_auctionId);\n    }\n\n    /**\n    * @dev Transfer the auction token to the winning bidder\n    *\n    * Emits an {AuctionCompleted} event\n    *\n    * Requirements\n    * - `_auctionId` must correspond to valid auction\n    * - Can only be widthdrawn after auction's `endBlock` deadline\n    * - Only `bidder` can widthdraw the token\n    * \n    * @param _auctionId Identifier for auction listing\n    */\n    function widthdrawToken(\n        uint _auctionId\n    ) \n        external \n        auctionExists(_auctionId) \n    {\n        Auction storage auction = auctions[_auctionId];\n        require(block.number > auction.endBlock, \"Auction bidding has not ended.\");\n        require(msg.sender == auction.bidder, \"Token can only be widthdrawn by the winning bidder.\");\n        require(auction.isTokenWidthdrawn == false, \"Token has already been widthdrawn.\");\n        \n        auction.nftContract.safeTransferFrom(\n            address(this), \n            auction.bidder, \n            auction.tokenId\n        );\n\n        auction.isTokenWidthdrawn = true;\n    }\n\n    /**\n    * @dev Transfer the auction bids to the seller\n    *\n    * Requirements\n    * - `_auctionId` must correspond to valid auction\n    * - Can only be widthdrawn after auction's `endBlock` deadline\n    * - Only `seller` can widthdraw bids\n    * \n    * @param _auctionId Identifier for auction listing\n    */\n    function widthdrawBids(\n        uint _auctionId\n    ) \n        external \n        auctionExists(_auctionId) \n    {\n        Auction storage auction = auctions[_auctionId];\n        require(block.number > auction.endBlock, \"Auction bidding has not ended.\");\n        require(msg.sender == auction.seller, \"Bids can only be widthdrawn by the seller.\");\n        require(auction.isBidsWidthdrawn == false, \"Bids have already been widthdrawn.\");\n\n        payable(auction.seller).transfer(auction.bidTotal);\n    }\n\n    /**\n    * @dev Return auction details for input auction ID.\n    *\n    * Requirements\n    * - `_auctionId` must correspond to valid auction\n    *\n    * @param _auctionId Identifier for auction listing\n    * @return Auction structure containing the auction's details\n    */\n    function getAuction(\n        uint _auctionId\n    ) \n        external \n        view \n        auctionExists(_auctionId) \n        returns (Auction memory) \n    {\n        return auctions[_auctionId];\n    }\n\n    /**\n    * @dev Return details for all auctions\n    *\n    * @return Array of Auction structures containing each auction's details\n    */\n    function getAuctions() \n        external\n        view \n        returns (Auction[] memory) \n    {\n        return _getAuctions(auctionIds);\n    }\n\n    /**\n    * @dev Return array of auction IDs\n    *\n    * @return Array of auction IDs\n    */\n    function getAuctionIds() external view returns (uint256[] memory) {\n        return auctionIds;\n    }\n\n    /**\n    * @dev Modifier to check if '_auctionID' references a created auction\n    */\n    modifier auctionExists(uint256 _auctionId) {\n        require(auctions[_auctionId].seller != address(0), \"Auction ID does not reference valid auction\");\n        _;\n    }\n\n    /**\n    * @dev Return auction data for array of IDs\n    *\n    *\n    * @param _auctionIds Array of uint256 IDs\n     */\n     function _getAuctions(\n        uint256[] memory _auctionIds\n     )\n        internal\n        view\n        returns (Auction[] memory)\n    {\n        Auction[] memory _auctions = new Auction[](_auctionIds.length);\n        for (uint i = 0; i < _auctionIds.length; i++) {\n            _auctions[i] = auctions[_auctionIds[i]];\n        }\n        return _auctions;\n    }\n    \n\n    /**\n    * @dev Create a new auction for a token\n    *\n    * Emits an {AuctionCreated} event\n    *\n    * @param _nftAddress Address of the NFT contract defining the token\n    * @param _seller Address of seller of the token\n    * @param _tokenId NFT identifier of the token\n    */\n    function _createAuction(\n        address _nftAddress, \n        address _seller, \n        uint _tokenId\n    ) \n        internal\n    {\n        uint auctionId = auctionIds.length;\n\n        Auction memory newAuction = Auction({\n            nftContract: IERC721(_nftAddress),\n            seller: _seller,\n            bidder: address(0),\n            tokenId: _tokenId,\n            auctionId: auctionId,\n            bidPrice: 1 ether,\n            startBlock: 0,\n            endBlock: 0,\n            blockIncrease: 100,\n            bidTotal: 0,\n            isCanceled: false,\n            isTokenWidthdrawn: false,\n            isBidsWidthdrawn: false\n        });\n\n        auctionIds.push(auctionId);\n        auctions[auctionId] = newAuction;\n\n        emit AuctionCreated(auctionId);\n    }\n}",
  "sourcePath": "/Users/rhammell/Desktop/nft-auction/Truffle/contracts/NFTGrab.sol",
  "compiler": {
    "name": "solc",
    "version": "0.8.13+commit.abaa5c0e.Emscripten.clang"
  },
  "schemaVersion": "3.4.8",
  "updatedAt": "2022-08-12T20:55:29.662Z",
  "networkType": "ethereum",
  "devdoc": {
    "kind": "dev",
    "methods": {
      "bid(uint256)": {
        "details": "Accepts a new bid for an auction A successfull bid will add the caller as auction bidder and  increase the auction's `endBlock` deadline. Auctions with no previous  bidders will have `startBlock` set.  Emits an {AuctionBid} event Requirements - `_auctionId` must correspond to valid auction - Auction `seller` cannot place a bid - Payment must meet minimum bid price - Auction must not be canceled - Bid must be placed before auction's `endBlock` deadline if not the first bid",
        "params": {
          "_auctionId": "Identifier for auction listing"
        }
      },
      "cancelAuction(uint256)": {
        "details": "Cancel an auction and return the token to the seller. Emits an {AuctionCancelled} event Requirements - `_auctionId` must correspond to valid auction - Only `seller` can cancel the auction - Can only be canceled if no bids have been placed",
        "params": {
          "_auctionId": "Identifier for auction listing"
        }
      },
      "getAuction(uint256)": {
        "details": "Return auction details for input auction ID. Requirements - `_auctionId` must correspond to valid auction",
        "params": {
          "_auctionId": "Identifier for auction listing"
        },
        "returns": {
          "_0": "Auction structure containing the auction's details"
        }
      },
      "getAuctionIds()": {
        "details": "Return array of auction IDs",
        "returns": {
          "_0": "Array of auction IDs"
        }
      },
      "getAuctions()": {
        "details": "Return details for all auctions",
        "returns": {
          "_0": "Array of Auction structures containing each auction's details"
        }
      },
      "onERC721Received(address,address,uint256,bytes)": {
        "details": "Implementation of the required {onERC721Received} function for contracts  intended as recipients of ERC721 token transfers using {safeTransferFrom}.  Creates auction for the received token and returns required ERC721TokenReciever value.  TODO: Allow custom auction details to be passed through the calldata",
        "params": {
          "_from": "Address that previously owned the token",
          "_tokenId": "NFT identifier of token being transfered"
        },
        "returns": {
          "_0": "Expected magic value defined by ERC721TokenReciever spec"
        }
      },
      "widthdrawBids(uint256)": {
        "details": "Transfer the auction bids to the seller Requirements - `_auctionId` must correspond to valid auction - Can only be widthdrawn after auction's `endBlock` deadline - Only `seller` can widthdraw bids ",
        "params": {
          "_auctionId": "Identifier for auction listing"
        }
      },
      "widthdrawToken(uint256)": {
        "details": "Transfer the auction token to the winning bidder Emits an {AuctionCompleted} event Requirements - `_auctionId` must correspond to valid auction - Can only be widthdrawn after auction's `endBlock` deadline - Only `bidder` can widthdraw the token ",
        "params": {
          "_auctionId": "Identifier for auction listing"
        }
      }
    },
    "version": 1
  },
  "userdoc": {
    "kind": "user",
    "methods": {},
    "version": 1
  }
}